:1000000012C02CC02BC02AC029C028C027C026C0BF
:1000100025C024C023C064C054C020C01FC01EC05F
:100020001DC01CC01BC011241FBECFE5D1E0DEBF28
:10003000CDBF10E0A0E6B0E0E8E6FAE002C005902F
:100040000D92A63AB107D9F711E0A6EAB0E001C0D7
:100050001D92A531B107E1F74DD004C5D1CF99B3B9
:1000600046B326B386B35091A40040749771492BD0
:1000700030E02170307065E0220F331F6A95E1F7A0
:10008000422B90E08270907026E0880F991F2A958D
:10009000E1F7482B45279091D4008091D300892720
:1000A00084238093D300909594239093D40040951B
:1000B000482B492B40954093D50045274093A400F9
:1000C00008951F920F920FB60F9211248F9381B54E
:1000D000806481BD8F910F900FBE0F901F90189577
:1000E0001F920F920FB60F9211240F900FBE0F9018
:1000F0001F9018957F928F929F92AF92BF92CF924E
:10010000DF92EF92FF920F931F93CF93DF9388E8D4
:100110009FE0909314018093130188E287BBBC9AFF
:10012000BA9A84E088BB86B78F6086BF89B387712F
:100130009091A400892B8093A40091E09093CF002C
:1001400080FF05C081FD02C093E001C092E0909362
:10015000D80082FD06C08091D80060E039D380E0ED
:100160000AC084FD02C080E002C08091D80060E037
:100170002FD38091D80061E02BD385B7877E85BFD0
:100180008FB780688FBFF4D154D285E0B82EC8E60F
:10019000D0E00AE0A02E1CE0C12ED12CCC0EDD1E3A
:1001A00005E010E0B3E0EB2EAEE19A2EF8E28F2EE0
:1001B000E2E0FE2E70E1772E85B7806285BF8895DC
:1001C00085B78F7D85BF8091CE0080FF04C080E021
:1001D000D5D180E042D38091CE0081FF15C08091BF
:1001E000D1008F7D8093D10081E0C8D181E035D3EB
:1001F0008091D10085FF06C08091D2008F5F8093EF
:10020000D20002C01092D2008091CF00823009F05B
:1002100099C08091CE0090E0FC01E170F07080FF09
:1002200005C02091AA003091AB0004C02091AC0021
:100230003091AD00A091CD00B0E0AC57BF4F8C9194
:100240006B2DF0D390E0AC01440F551F440F551FA8
:100250004217530708F076C066E070E0D1D3281744
:10026000390708F06FC08091CC008F5F8093CC007D
:10027000823008F467C01092CC00309771F080E0B3
:10028000BCD1E091CD00F0E0EE0FFF1FE752FF4F31
:100290008091BA009091BB000DC081E0AED1E09199
:1002A000CD00F0E0EE0FFF1FE752FF4F8091C60038
:1002B0009091C700918380839091A1008091CD009F
:1002C000913049F4982F9F5F9093CD009D3160F05D
:1002D0001092A10002C0882311F0815003C081E078
:1002E0008093A1008093CD002091CD0030E0F901F2
:1002F000EC57FF4F4081409368001982842F6A2D8C
:1003000091D380937C00F901EE0FFF1FE752FF4F5E
:10031000208131813093BB002093BA004093740058
:10032000F6011182809382003093C7002093C600AB
:100330008091CE0080FF03C084E060E002C084E0D2
:1003400061E046D24091CF00842F8350823008F084
:1003500058C08091D2008A3000F58091D600882361
:10036000E1F08091D7008F5F8093D700853038F41B
:10037000843009F046C081E040D180E00BC090910C
:10038000A5008917F0F11092D700433011F483E0F3
:1003900001C085E061E01CD234C02091AC003091F6
:1003A000AD00433019F4E3E0F0E002C0E5E0F0E036
:1003B000EE0FFF1FE459FF4F8081918166E070E0EE
:1003C0001FD3B8013BD362177307D8F0433019F439
:1003D000E3E0F0E002C0E5E0F0E0EE0FFF1FE459DB
:1003E000FF4F80819181880F991F880F991FB80155
:1003F00025D32617370728F081E08093D600109286
:10040000D7008091D1008111C29829DE8091D5005A
:10041000882309F4ABC08771E1F18091CF0081306E
:1004200019F08230B1F524C09091A40090FD03C072
:100430008093D80007C091FD03C0E092D80002C0AD
:10044000F092D80080E0D9D081E0D7D08091A4008C
:1004500082FD03C08091D80010C084FD02C080E0FE
:1004600002C08091D80060E0B3D18091D8000FC065
:100470008091A40082FD05C084E060E0A9D180E005
:1004800006C084FD06C080E060E0A2D184E061E0A7
:100490009FD18091D50090E02091A40030E082238C
:1004A000932386FF07C08091CF00843019F088B372
:1004B000872588BB8091D500807A09F457C080E0F9
:1004C0009CD081E09AD09091A400892F95FF31C0F3
:1004D00097FF1FC091E09093CF0080FD03C09093E1
:1004E000D80007C081FD03C0E092D80002C0F0929E
:1004F000D80082FD03C08091D80010C084FD02C0E6
:1005000080E002C08091D80060E062D18091D80084
:1005100008C0F092CF0092FD07C084E060E058D19F
:1005200080E061E055D122C080E060E051D184E0FC
:10053000F8CF97FF0DC0E092CF0080E060E048D197
:1005400083E061E045D18092A5001092D6000EC0F4
:1005500084E08093CF0080E060E03AD185E061E004
:1005600037D19092A5001092D600C49862D024CEC4
:10057000F894A89588E581BD7894089596B79E7FF4
:1005800096BF90E193B99BEA96B9882311F497ED51
:1005900001C094ED97B9369A90E245B7406245BFE5
:1005A000889545B74F7D45BF9150B9F798E040E039
:1005B00050E065B7606265BF889565B76F7D65BFC0
:1005C00064B175B1372F20E0F901E60FF11D4E0F30
:1005D0005F1F915071F7E82FF0E0EE0FFF1FE65517
:1005E000FF4F83E0569547958A95E1F75183408305
:1005F000379886B7816086BF0895282F30E0F901CB
:10060000E653FF4F4081C90166E070E0F9D1FC017B
:10061000E40FF11DEE0FFF1FEE54FF4FD901AA0F9B
:10062000BB1FAA55BF4F8D919C91119791838083D9
:1006300008958091A6009091A70063E09695879514
:100640006A95E1F795BD8CBD8091A8009091A900B5
:1006500053E0969587955A95E1F795BD8ABD089523
:1006600086B7877F86BF89B5826889BD82E38A9510
:10067000F1F709B400FEFDCF89B5846089BD80B76C
:10068000806280BF87B5886087BD86B58C7F86BD58
:1006900015BC1CBC15BC1ABC82E085BD1BBC19BEB8
:1006A0008FB581608FBD0895DF93CF930F92CDB743
:1006B000DEB79091CE00992319F48983D1DF898127
:1006C0009091CE00882329F480B7816080BF91602B
:1006D00004C087B5816087BD92609093CE000F9073
:1006E000CF91DF91089589B58D7F89BD8FB58E7FBC
:1006F0008FBD86B7886086BF08952091CE0088237D
:1007000039F415BC1CBC90B79E7F90BF2E7F06C0ED
:1007100015BC1ABC97B59E7F97BD2D7F2093CE0048
:10072000E82FF0E0EE0FFF1FEA55FF4F1182108215
:100730008091CE00882309F4D6DF0895CF93C82F87
:10074000DCDF8C2F90E06CE070E05AD1FC01EE54BD
:10075000FF4F118210828C2F90E06CE070E050D13E
:10076000FC01EE54FF4F138212828C2F90E06CE05C
:1007700070E046D1FC01EE54FF4F158214828C2F9D
:1007800090E06CE070E03CD1FC01EE54FF4F17822A
:1007900016828C2F90E06CE070E032D1FC01EE54B8
:1007A000FF4F118610868C2F90E06CE070E028D10E
:1007B000FC01EE54FF4F138612868091D100CC23AA
:1007C00011F4886101C088628093D100CF910895AF
:1007D000CF93DF93282FA62FC62FD0E0FE01E6533C
:1007E000FF4F8083CE0166E070E00AD1AC01420F7A
:1007F000511D9A01220F331FF901E05AFF4F40812A
:1008000051814115510521F1FE01EE55FF4F8081C7
:100810009091CE00892371F48A2F46DFCC0FDD1F23
:10082000FE01EA55FF4FC255DF4F888199819183C0
:10083000808310C02E543F4FF90180819181009731
:1008400049F0CC0FDD1FCA55DF4F9983888302C062
:100850008A2F53DFDF91CF9108956F927F928F920D
:100860009F92BF92CF92DF92EF92FF920F931F93CE
:10087000CF93DF93482FC82EDD24C601880F991F20
:10088000FC01E655FF4F008111818A559F4FDC0125
:10089000CD91DC91F601E653FF4FA081C60166E0E1
:1008A00070E0AED08A0F911DFC01EE0FFF1FE05AE1
:1008B000FF4FE080F18088589F4FFC01B080F3E04B
:1008C00005381F0708F50531110528F081E0C0340F
:1008D000D80740F419C00A30110520F4BCE0C1303B
:1008E000DB0790F44601880C991C6EEA662E60E0E6
:1008F000762E680C791CF30120813181C217D30751
:10090000B1F40531110518F0842F18DF6BC08A2F60
:10091000642F5EDFF401EA55FF4F20813181D3015E
:100920008D919C9111972817390709F05BC02B2DE9
:1009300030E0C701821B930B0817190748F5219671
:100940008B2D90E06EEF7FEF5BD08E0D9F1D081713
:100950001907F0F423968B2D90E06CEF7FEF50D0C9
:100960008E0D9F1D0817190798F468960A30110517
:1009700078F4C601880F991FFC01E255FF4F8A5594
:100980009F4FDC018D919C91119791838083E0961C
:100990002E0D3F1D20173107B0F421978B2D90E0CD
:1009A0009C01220F331F2E0D3F1D2017310758F4D5
:1009B0002397880F991F880F991F8E0D9F1D8017F1
:1009C000910708F46097F601EE0FFF1FEA55FF4FFD
:1009D00080911301909114018C179D0708F4EC018C
:1009E000D183C083DF91CF911F910F91FF90EF9042
:1009F000DF90CF90BF909F908F907F906F900895E1
:100A00005527002480FF02C0060E571F660F771F70
:100A10006115710521F096958795009799F7952FA7
:100A2000802D0895991B79E004C0991F961708F04E
:100A3000961B881F7A95C9F780950895AA1BBB1B42
:100A400051E107C0AA1FBB1FA617B70710F0A61BCE
:100A5000B70B881F991F5A95A9F780959095BC01EF
:080A6000CD010895F894FFCFC9
:100A680000005800DC0018032C002C00000058007F
:100A7800DC0018032C002C000008141E04040008D5
:100A8800141E04042C2C2D2D2E2F30323436383AD7
:100A98003D3F4245484B4F53575D63686E73797FBE
:060AA80084010102E00FD1
:00000001FF
