:1000000012C02CC02BC02AC029C028C027C026C0BF
:1000100025C024C023C050C040C020C01FC01EC087
:100020001DC01CC01BC011241FBECFE5D1E0DEBF28
:10003000CDBF10E0A0E6B0E0E4E7F9E002C0059033
:100040000D92AC37B107D9F710E0ACE7B0E001C0D2
:100050001D92A839B107E1F734D18AC4D1CF99B341
:1000600086B330917A0084709073892B8327209116
:10007000920090919100922798239093910020955F
:100080002823209392008095892B822B8095809342
:100090009700832780937A0008951F920F920FB6DE
:1000A0000F9211248F9381B5806481BD8F910F9041
:1000B0000FBE0F901F9018951F920F920FB60F92C0
:1000C00011240F900FBE0F901F90189586B78E7F4A
:1000D00086BF80E183B98BEA86B987EC87B9369A07
:1000E00085B7806285BF889585B78F7D85BF24B130
:1000F00035B1932F80E0820F911D909390008093F3
:100100008F00379886B7816086BF08958BB3887F4C
:100110008BBB88B38F7988BB0895F8DF20917B0073
:1001200080918F00909190002330B9F523E08935BC
:10013000920708F0DA9A80918F009091900023E066
:10014000823A920708F0C69A80918F0090919000B1
:1001500023E08F3A920708F0C59A80918F00909122
:10016000900023E0813C920708F0D99A80918F009B
:100170009091900023E0883E920708F0D89A8091F1
:100180008F009091900023E089359207E0F58091EF
:100190008E008B30C0F5DA9A089522E08B339207F7
:1001A00008F0DA9A80918F009091900022E08C36CE
:1001B000920708F0C69A80918F009091900022E0FB
:1001C0008437920708F0C59A80918F009091900033
:1001D00022E08038920708F0D99A80918F009091A0
:1001E000900022E08A39920708F0D89A80918F0017
:1001F0009091900022E08B33920728F480918E003A
:100200008B3008F4DA9A089581DF80916F00813095
:1002100041F0813028F0823031F0833041F406C063
:10022000D89AD99A0895C59AC69A0895DA9A0895DF
:10023000E0916F00F0E0E059FF4F808160E05DD217
:1002400080916F00E82FF0E0EB58FF4F9081909382
:100250006D0010928C0098B39C7F98BB823049F05F
:10026000823018F0833041F406C088B3836088BBC5
:100270000895C09A0895C19A089548DF90918E001C
:10028000809193009D30C8F4813021F4C69AC59ABC
:10029000D99AD89A8091930081FDDA9A809193003F
:1002A00083FF03C0DA9AC69AC59A8091930082FFB1
:1002B00007C0DA9AD99AD89A0895813009F4A4DF50
:1002C00008950F931F93CF93DF9388E89FE0909357
:1002D0009600809395008BE687BB87E08ABB86B744
:1002E0008F6086BF81E080936F00A2DF85B7877E35
:1002F00085BF8FB780688FBF19D180917C009091A6
:100300007D00019690937D0080937C0070D1DEDEAD
:1003100080918F009091900022E0843E920718F423
:1003200082E080937B00F9DEC5E0D0E011E004E0DC
:1003300085B7806285BF889585B78F7D85BF8091A1
:100340006E00882359F0E9DE80916E008F5F809304
:100350006E00863950F010926E0006C080919300B6
:10036000882311F08ADF01C04FDF80918B0080FF6E
:1003700015C0809193008B7F8093930080E0DCD048
:1003800080E0FDD18091930082FF06C080919400AF
:100390008F5F8093940002C010929400E0916F00F0
:1003A000EE2309F449C0809194008A30F0F48091E2
:1003B0008C008823D1F080918D008F5F80938D0019
:1003C000853030F48430C1F580E0F6D080E00AC09A
:1003D00090916D00891780F110928D00F0E0E05946
:1003E000FF4F808160E089D127C020917E0030914D
:1003F0007F00F0E0E059FF4FE081F0E0EE0FFF1FDB
:10040000E05AFF4F0190F081E02DCF0166E070E0EF
:1004100089D2BE0199D26217730770F0CF01880F9D
:10042000991F880F991FBE018FD22617370720F01A
:1004300010938C0010928D00DAD011DE809197001D
:100440008823C9F190916E00992331F540916F0096
:10045000443011F190E020917A0030E08223932320
:1004600084FF07C0433028F44F5F40936F00CCDE19
:10047000DFDE8091970090E020917A0030E08223C7
:10048000932385FF09C080916F00882329F0815054
:1004900080936F00B9DECCDE80917A0084FD04C0C9
:1004A00085FD02C010936E0082FD05C0809193000F
:1004B00088608093930080918E008F5F80938E0080
:1004C0008E3108F435CF10928E0000DE20918F001F
:1004D0003091900040917B00433019F48AE993E019
:1004E00002C087E692E0509193002817390710F474
:1004F000516001C05E7F50939300433019F489E549
:1005000093E002C08BE392E02817390708F010CF80
:1005100080916F00843009F40BCF00936F0088DE68
:100520008091930082608093930002CFF894A89505
:1005300088E581BD7894089596B79E7F96BF90E137
:1005400093B99BEA96B9882319F41B9A90ED01C0E0
:1005500094ED97B9369A90E245B7406245BF8895C9
:1005600045B74F7D45BF9150B9F798E040E050E066
:1005700065B7606265BF889565B76F7D65BF64B11B
:1005800075B1372F20E0F901E60FF11D4E0F5F1F07
:10059000915071F7E82FF0E0EE0FFF1FE258FF4F88
:1005A00083E0569547958A95E1F7518340833798C4
:1005B00086B7816086BF089590E0FC01E657FF4F43
:1005C0002081FC01EE0FFF1FEE0FFF1FE20FF11D58
:1005D000EE0FFF1FEE57FF4FDC01AA0FBB1FA45801
:1005E000BF4F8D919C911197918380830895809145
:1005F0007C0090917D0053E0969587955A95E1F7A0
:1006000095BD8CBD089586B7877F86BF89B5826802
:1006100089BD82E38A95F1F709B400FEFDCF89B563
:10062000846089BD80B7806280BF86B58C7F86BDBF
:1006300015BC1CBC15BC1ABC82E085BD1BBC19BE18
:100640008FB581608FBD0895DF93CF930F92CDB7A3
:10065000DEB790918B00992319F48983D4DF8981C7
:10066000882341F480B7816080BF80918B008160D6
:1006700080938B000F90CF91DF91089589B58D7F86
:1006800089BD8FB58E7F8FBD86B7886086BF089580
:10069000882351F415BC1CBC90B79E7F90BF9091ED
:1006A0008B009E7F90938B00E82FF0E0EE0FFF1FF2
:1006B000E458FF4F1182108280918B00882309F447
:1006C000DDDF0895CF93C82FE3DFEC2FF0E073E078
:1006D000EE0FFF1F7A95E1F7EE57FF4F1182108260
:1006E00013821282158214821782168280919300DF
:1006F000846080939300CF910895CF93DF93982FD8
:10070000862FC62FD0E0FE01E657FF4F90839E0153
:10071000220F331F220F331F290F311D220F331FCA
:10072000F901E05AFF4F408151814115510519F1FE
:10073000FE01E459FF4F908140918B00942369F4AE
:1007400083DFCC0FDD1FFE01E458FF4FC058DF4FA1
:1007500088819981918380830FC02E573F4FF90183
:1007600080819181009741F0CC0FDD1FC458DF4F8D
:100770009983888301C08CDFDF91CF9108956F92B8
:100780007F928F929F92BF92CF92DF92EF92FF92D1
:100790000F931F93CF93DF93682FC82EDD2496010C
:1007A000220F331FF901E258FF4F008111812458B5
:1007B0003F4FD901CD91DC911197F601E657FF4FDC
:1007C00080819601220F331F220F331F280F311D06
:1007D000F901EE0FFF1FE05AFF4FE080F18028592A
:1007E0003F4FF901B080F2E00B381F0708F50531E3
:1007F000110528F091E0C034D90740F419C00A303F
:10080000110520F4ACE0C130DA0790F44601880C01
:10081000991C70E8672E70E0772E680C791CF30144
:1008200020813181C217D307A1F40531110518F0D9
:10083000862F48DF69C061DFF401E458FF4F208153
:100840003181D3018D919C9111972817390709F0B7
:100850005BC02B2D30E0C701821B930B08171907D3
:1008600048F521968B2D90E06EEF7FEF5BD08E0DDB
:100870009F1D08171907F0F423968B2D90E06CEF5D
:100880007FEF50D08E0D9F1D0817190798F46896BA
:100890000A30110578F4C601880F991FFC01E05851
:1008A000FF4F84589F4FDC018D919C91119791834C
:1008B0008083E0962E0D3F1D20173107B0F421975D
:1008C0008B2D90E09C01220F331F2E0D3F1D201712
:1008D000310758F42397880F991F880F991F8E0DA1
:1008E0009F1D8017910708F46097F601EE0FFF1F18
:1008F000E458FF4F80919500909196008C179D07CA
:1009000008F4EC01D183C083DF91CF911F910F9147
:10091000FF90EF90DF90CF90BF909F908F907F904F
:100920006F9008955527002480FF02C0060E571FC0
:10093000660F771F6115710521F0969587950097D1
:1009400099F7952F802D0895AA1BBB1B51E107C075
:10095000AA1FBB1FA617B70710F0A61BB70B881F4F
:10096000991F5A95A9F780959095BC01CD010895DE
:04097000F894FFCF29
:1009740000003C007800C201000A0F28010F0101A9
:0C09840001010203010F0F1128143003C1
:00000001FF
